00000012CAMILA RIBEIRO                1003P00000080020 
00000008BEATRIZ ROCHA                 1002P00000030075 
00000010JULIA FERREIRA                1001P00000110000 
00000007LUCAS MORAES                  1001C00000090000 
00000009RAFAEL SANTOS                 1003Z00000001000 
00000011MATEUS OLIVEIRA               1002C00000045000