00000006PEDRO ALVES                   1003C00000000500 
00000002JOAO PEREIRA                  1002P00000050050 
00000004CARLOS LIMA                   1003C00000100000 
00000001ANA SILVA                     1001C00000125000 
00000003MARIA SOUZA                   1001X00000003000 
00000005PAULA COSTA                   1002P00000075025